:100000000C94BF000C94DC000C94DC000C94DC001D
:100010000C94DC000C94DC000C94DC000C94DC00F0
:100020000C94DC000C94DC000C94DC000C94DC00E0
:100030000C94DC000C94DC000C94DC000C94DC00D0
:100040000C94DC000C94DC000C94DC000C94DC00C0
:100050000C94A7020C94C6020C94DC000C94DC00F7
:100060000C94DC000C94DC000C94DC000C94DC00A0
:100070000C94DC000C94DC000C94DC006E616E00CF
:10008000696E660000407A10F35A00A0724E18099B
:100090000010A5D4E80000E87648170000E40B54EF
:1000A000020000CA9A3B000000E1F50500008096BE
:1000B0009800000040420F000000A08601000000F0
:1000C000102700000000E8030000000064000000AA
:1000D00000000A00000000000100000000002C7673
:1000E000D888DC674F0823DFC1DFAE59E1B1B7968E
:1000F000E5E3E453C63AE651997696E8E6C28426EB
:10010000EB898C9B62ED407C6FFCEFBC9C9F40F2C6
:10011000BAA56FA5F490055A2AF75C936B6CF96742
:100120006DC11BFCE0E40D47FEF520E6B500D0ED07
:10013000902E0300943577050080841E080000206F
:100140004E0A000000C80C333333330F986E12830D
:100150001141EF8D2114893BE65516CFFEE6DB18E1
:10016000D1844B381BF77C1D901DA4BBE4242032A6
:1001700084725E228100C9F124ECA1E53D2711249F
:100180001FBECFEFD0E1DEBFCDBF11E0A0E0B1E0F8
:10019000E8E9F8E102C005900D92A03AB107D9F75D
:1001A00011E0A0EAB1E001C01D92AC3FB107E1F758
:1001B0000E9412020C944A0C0C9400008F3030F410
:1001C000E82FF0E0E758FE4F8081089586E6089515
:1001D000CF93C82FA82FA295AF70AF3028F4B0E00E
:1001E000A758BE4F8C9101C086E60E940A03CF70CB
:1001F000CF3031F0EC2FF0E0E758FE4F808101C0A6
:1002000086E60E940A03CF910895EF92FF920F9322
:100210001F93CF93DF937B01082F192FC0E0D0E00D
:1002200006C0F80181918F010E94E8002196CE1549
:10023000DF05BCF3DF91CF911F910F91FF90EF90FD
:100240000895CF93DF93C82FD92F02C00E940A03CD
:1002500089918823D9F7DF91CF9108955D9A80E144
:100260008A95F1F75E9A80E18A95F1F75E98809120
:10027000A0019091A101A091A201B091A3010197C9
:10028000A109B1098093A0019093A101A093A201BB
:10029000B093A30108955D9880E18A95F1F75E9A85
:1002A00080E18A95F1F75E988091A0019091A1017B
:1002B000A091A201B091A3010196A11DB11D80934F
:1002C000A0019093A101A093A201B093A30108956E
:1002D0005B9880E18A95F1F75C9A80E18A95F1F765
:1002E0005C988091A4019091A501A091A601B09184
:1002F000A7010196A11DB11D8093A4019093A501B2
:10030000A093A601B093A70108955B9A80E18A9516
:10031000F1F75C9A80E18A95F1F75C988091A401ED
:100320009091A501A091A601B091A7010197A10903
:10033000B1098093A4019093A501A093A601B09365
:10034000A7010895089A109A099A119A089508C069
:100350000E942E018FE99FE00197F1F700C0000095
:100360000099F6CF1092A0011092A1011092A20163
:100370001092A301089580E091E00E9421018AE19A
:1003800091E00E94210185EF91E00E94210188E225
:1003900091E00E94210180E090E0FC01EB50FE4FD3
:1003A0002081283471F4019686309105B1F78BE2F3
:1003B00091E00E9421010E94A7018AE391E00E943E
:1003C000210108952091F9018091F80190E0A0E0C9
:1003D000B0E0BA2FA92F982F882730E040E050E0F6
:1003E000822B932BA42BB52B8093A8019093A9016A
:1003F000A093AA01B093AB0188E491E00E9421018F
:10040000089584E691E00E9421018091F5018834ED
:1004100019F08C3431F403C00E94BB0108950E948E
:10042000E2010895CF93DF931092FB0188E10FB6AC
:10043000F89480936000109260000FBE0E949302B7
:100440007894539A549A559A569A0E94A2012091F0
:10045000A0013091A1014091A2015091A30180918E
:10046000A8019091A901A091AA01B091AB01281710
:1004700039074A075B072CF40E944B0182E70E9470
:100480000A032091A0013091A1014091A201509155
:10049000A3018091A8019091A901A091AA01B09116
:1004A000AB0182179307A407B5072CF40E942E0115
:1004B0008CE60E940A030E940103882369F1C0911F
:1004C000B001DD27C7FDD0950E94F002CB50DE4F72
:1004D0008883E091B001FF27E7FDF095EB50FE4FD8
:1004E00080810E940A0380E20E940A038091B00189
:1004F0008F5B0E940A0388E291E00E9421018091B3
:10050000B0018F5F8093B0018091B001863021F4FB
:100510000E9401021092B0018FE99FE00197F1F76C
:1005200000C0000094CF89E18093C4001092C50000
:1005300088E98093C10086E08093C2001092B201E6
:100540001092B1011092B4011092B30108951F925C
:100550000F920FB60F9211248F939F93EF93FF93F7
:100560009091C6008091B1018F5F8F718093B1012E
:10057000E5EDF1E0E80FF11D9083FF91EF919F9180
:100580008F910F900FBE0F901F9018951F920F9292
:100590000FB60F9211248F939F93EF93FF93909137
:1005A000B3018091B401981769F0E091B401EF5F55
:1005B000EF71E093B401F0E0EB54FE4F8081809343
:1005C000C60005C08091C1008F7D8093C100FF915E
:1005D000EF919F918F910F900FBE0F901F901895E4
:1005E0009091B1018091B2019817D1F3E091B201DD
:1005F000EF5FEF71E093B201F0E0EB52FE4F8081CC
:1006000008952091B1019091B20181E0291709F478
:1006100080E008959091B3019F5F9F712091B40194
:100620009217E1F3E92FF0E0EB54FE4F80839093B3
:10063000B3018091C10080628093C1000895209130
:10064000B1019091B20181E0291709F480E0089589
:100650005F926F927F928F929F92AF92BF92CF9252
:10066000DF92EF92FF920F931F93DF93CF93CDB75B
:10067000DEB768970FB6F894DEBF0FBECDBF3C0162
:100680004A015B01522E102F0E2DDE011196E8E873
:10069000F1E088E101900D928150E1F7C501B401CC
:1006A00020E030E0A9010E94CE099E012F5F3F4F5C
:1006B000452D50E087FD18C0FA01EE0FFF1FEE0F29
:1006C000FF1FE20FF31FC080D180E280F380C501DD
:1006D000B401A70196010E94D20920E030E040E079
:1006E0005FE30E941B0817C0FA01EE0FFF1FEE0F19
:1006F000FF1FE20FF31FC080D180E280F380C501AD
:10070000B401A70196010E94D20920E030E040E048
:100710005FE30E941A08A70196010E948308C62E73
:10072000D72EE82EF92EBB24B394C701B60120E0E2
:1007300030E0A9010E947F0887FD02C0BB241AC0D7
:10074000C701B60120E030E040E85FEB0E94CE092F
:10075000181684F4C3016FEF7FEF412F50E0202F74
:1007600030E00E945A0B882E992EF401319780E3D5
:1007700080830AC0C301B701A601212F30E010E039
:100780000E945A0B882E992E8EE2F40181934F011C
:10079000BB2021F0F7FAF094F7F8F094C701B60106
:1007A0000E94EB080E941E099B01AC01C701B60123
:1007B0000E941A08C52CDD24F601EE0FFF1FEE0F74
:1007C000FF1FEC0FFD1F21813281438154810E9464
:1007D000D2090E94EB08AB01BC01C401960100E004
:1007E00010E00E945A0B68960FB6F894DEBF0FBE59
:1007F000CDBFCF91DF911F910F91FF90EF90DF90D0
:10080000CF90BF90AF909F908F907F906F905F90B0
:100810000895FC0110863896262F2170205D2293C2
:100820006695E817F907C1F70895FC01108A7096DC
:10083000262F2170205D229376956795E817F9079A
:10084000B9F70895FC011282862F8F708A3010F458
:10085000805D01C0895A818362956F706A3010F49F
:10086000605D01C0695A60830895FC01148234966A
:100870009B012F703070462F4F702A30310518F4CD
:10088000242F205D02C0242F295A2293E817F9074C
:1008900031F0B4E076956795BA95E1F7E9CF089520
:1008A0000F931F93FC01108638968A019B010F70ED
:1008B000107020703070A42FAF700A301105210520
:1008C000310518F42A2F205D02C02A2F295A2293BD
:1008D000E817F90741F014E0769567955795479525
:1008E0001A95D1F7E2CF1F910F910895282F392F34
:1008F000F90120E030E080E0A8E112C0419198E0E9
:10090000542F5827B52FB17050FD8A278695B130E6
:1009100009F48068915011F04695F2CF2F5F3F4F58
:100920002617370759F70895A3E1B0E0EAE9F4E0A4
:100930000C94350A6C017F876E87FC011782168242
:10094000838181FD04C06FC34C855D8504C01E0199
:100950000894211C311CF6019381EE85FF8593FDDF
:10096000859193FF8191FF87EE87882309F457C310
:10097000853241F493FD859193FF8191FF87EE8746
:10098000853259F490E0B6014A8B5B8B0E948E0B46
:100990004A895B895D874C87D7CF10E0FF2400E050
:1009A0000032B0F48B3269F08C3228F4803251F08E
:1009B000833271F40BC08D3239F0803349F4016019
:1009C0002CC00260046029C0086027C0006125C0F7
:1009D00007FD2EC0282F20532A3098F406FF08C0A8
:1009E000812F880F182F110F110F180F120F15C01C
:1009F0008F2D880FF82EFF0CFF0CF80EF20E006200
:100A00000CC08E3221F406FD0AC3006406C08C3689
:100A100011F4006802C0883659F4EE85FF8593FD15
:100A2000859193FF8191FF87EE87882309F0B8CFE6
:100A3000982F9554933018F40061805E06C0982F6B
:100A40009556933008F09BC10F7E06FF16E06FE3CA
:100A5000E62EE022853619F4F0E4EF2A07C0863648
:100A600019F420E8E22A02C011111150E7FE06C075
:100A70001C3340F4912E939427E00BC0183030F4CF
:100A8000212F06C027E03CE3932E03C027E017E0A8
:100A90009924CA0104969D878C87FA01608171812F
:100AA00082819381A101092D0E946C0A5C016980F9
:100AB000262D30E0398B288B60FE03C0388933FF48
:100AC00006C0E1FC06C0E2FE06C000E205C00DE281
:100AD00003C00BE201C000E0888999898C70907096
:100AE0000097C1F1002311F084E001C083E08F156D
:100AF00058F4F81AE3FC09C080E290E0B6010E94C5
:100B00008E0BFA94C9F701C0FF24002329F0802F2F
:100B100090E0B6010E948E0B888983FD03C000E837
:100B200010E00EC00CE710E00BC0A114B10409F0F6
:100B3000805290E0B6010E948E0B0F5F1F4F05C0E0
:100B4000AE2CBB2490E1A922BB24F8018491882318
:100B500061F762C2E7FE0EC09A0CF889F4FF04C088
:100B60008A81813309F49A94191454F5292D293076
:100B700050F52DC0E6FC2BC0812F90E08A159B0517
:100B80004CF03CEFA3163FEFB30624F080E8E82AD0
:100B900001C01150112349F0E2E0F0E0EC0FFD1F1D
:100BA000E10FF11D80818033A1F3E7FE10C0912E8B
:100BB0009394812F90E0A816B90644F41A1907C03F
:100BC0009924939404C098E0992E01C010E0E7FEA8
:100BD00007C01A141B043CF495012F5F3F4F05C05A
:100BE00025E030E002C021E030E0002311F02F5F6B
:100BF0003F4F112329F0812F90E00196280F391FD4
:100C00008F2D90E02817390714F4F21A01C0FF2441
:100C10004E2C5524C20189709070009749F406C08B
:100C200080E290E0B6010E948E0BFA94FF20C1F79B
:100C3000002329F0802F90E0B6010E948E0B43FC28
:100C400009C006C080E390E0B6010E948E0BFA94C2
:100C5000FF20C1F7E7FE46C03501B7FE02C066249B
:100C6000772425010894411C511C46185708420C52
:100C7000531CF501E919F1094F01812F90E000277C
:100C80001127081B190BFFEF6F16FFEF7F0629F4E2
:100C90008EE290E0B6010E948E0BA614B70434F0E9
:100CA000861497041CF4F201808101C080E308944B
:100CB000610871080894411C511C601671062CF0E3
:100CC00090E0B6010E948E0BDECF6A147B0441F4E3
:100CD0009A81963320F4953319F4F889F4FF81E36F
:100CE00090E049C08A81813311F02FEE622290E0BA
:100CF000B6010E948E0B112389F08EE290E0B601BE
:100D00000E948E0B02E0F101E00FF11D0F5F808168
:100D100090E0B6010E948E0B1150A9F744FE03C06B
:100D200085E490E002C085E690E0B6010E948E0B5B
:100D3000B7FC05C0A114B10441F464FE06C0B09430
:100D4000A194B108B3948DE201C08BE290E0B601AA
:100D50000E948E0B80E305C08F5FE6EFFFEFAE0EC3
:100D6000BF1EFAE0AF16B104BCF790E0B6010E94D6
:100D70008E0BC501C096B6010E948E0B4DC1833605
:100D800031F0833789F0833509F059C022C09A01C8
:100D90002E5F3F4F3D872C87FA0180818983310187
:100DA00081E0A82EB12C13C09A012E5F3F4F3D87E2
:100DB0002C87FA016080718006FF03C0612F70E00C
:100DC00002C06FEF7FEFC3010E944F0B5C010F77F2
:100DD00014C09A012E5F3F4F3D872C87FA01608037
:100DE000718006FF03C0612F70E002C06FEF7FEFDC
:100DF000C3010E94440B5C01006803FD1CC006C0D7
:100E000080E290E0B6010E948E0BFA948F2D90E064
:100E1000A816B906A8F30FC0F30107FD859107FFD7
:100E200081913F0190E0B6010E948E0BF110FA947F
:100E30000894A108B108A114B10471F7EDC084367B
:100E400011F0893661F507FF0BC09A012C5F3F4F07
:100E50003D872C87FA0160817181828193810CC06A
:100E60009A012E5F3F4F3D872C87FA016081718187
:100E7000882777FD8095982F0F7697FF08C090956B
:100E80008095709561957F4F8F4F9F4F0068A101AE
:100E90002AE030E00E94BA0B982E921841C08537A4
:100EA00021F40F7E2AE030E020C0097F8F36A9F0C0
:100EB000803720F4883509F0B2C00BC0803721F0AC
:100EC000883709F0ACC001C0006104FF09C00460AC
:100ED00007C004FF08C0066006C028E030E005C077
:100EE00020E130E002C020E132E007FF0AC0CA0181
:100EF00004969D878C87FA0160817181828193813C
:100F000009C0CA0102969D878C87FA0160817181B0
:100F100080E090E0A1010E94BA0B982E92180F7702
:100F200006FF09C00E7F911630F404FF06C002FDD3
:100F300004C00F7E02C0E92C01C0E12E802F90E09A
:100F400004FF0CC0FE01E90DF11D2081203311F4D6
:100F5000097E09C0E39402FF06C004C08678907041
:100F6000009709F0E394A02EBB2403FD14C000FFFA
:100F70000FC0EF1428F4192D1F0D1E19EF2C08C0F7
:100F8000192D06C080E290E0B6010E948E0BE3941A
:100F9000EF14C0F304C0EF1410F4FE1801C0FF24D6
:100FA000A4FE0FC080E390E0B6010E948E0BA2FE6B
:100FB0001FC0A1FE03C088E590E010C088E790E064
:100FC0000DC0C50186789070009791F0A1FC02C019
:100FD00080E201C08BE207FD8DE290E0B6010E9445
:100FE0008E0B06C080E390E0B6010E948E0B11507C
:100FF0009116C0F39A94F101E90DF11D808190E002
:10100000B6010E948E0B9920A9F706C080E290E0FD
:10101000B6010E948E0BFA94FF20C1F795CCF60121
:101020002681378102C02FEF3FEFC9016396E2E1CD
:101030000C94510A5058BB27AA270ED075C166D10F
:1010400030F06BD120F031F49F3F11F41EF45BC1FE
:101050000EF4E095E7FB51C1E92F77D180F3BA1781
:10106000620773078407950718F071F49EF58FC126
:101070000EF4E0950B2EBA2FA02D0B01B9019001B3
:101080000C01CA01A0011124FF27591B99F0593FF7
:1010900050F4503E68F11A16F040A22F232F342F3F
:1010A0004427585FF3CF469537952795A795F0408D
:1010B0005395C9F77EF41F16BA0B620B730B840BA2
:1010C000BAF09150A1F0FF0FBB1F661F771F881F5A
:1010D000C2F70EC0BA0F621F731F841F48F48795B2
:1010E00077956795B795F7959E3F08F0B3CF9395A1
:1010F000880F08F09927EE0F979587950895D9D016
:1011000008F481E008950CD00FC107D140F0FED063
:1011100030F021F45F3F19F0F0C0511139C1F3C034
:1011200014D198F39923C9F35523B1F3951B550BAB
:10113000BB27AA2762177307840738F09F5F5F4FAA
:10114000220F331F441FAA1FA9F333D00E2E3AF0EB
:10115000E0E830D091505040E695001CCAF729D005
:10116000FE2F27D0660F771F881FBB1F2617370754
:101170004807AB07B0E809F0BB0B802DBF01FF2784
:1011800093585F4F2AF09E3F510568F0B6C000C1EA
:101190005F3FECF3983EDCF3869577956795B795BE
:1011A000F7959F5FC9F7880F911D9695879597F9D9
:1011B0000895E1E0660F771F881FBB1F6217730752
:1011C0008407BA0720F0621B730B840BBA0BEE1F67
:1011D00088F7E095089504D06894B111D9C00895B6
:1011E000BCD088F09F5790F0B92F9927B751A0F045
:1011F000D1F0660F771F881F991F1AF0BA95C9F7AB
:1012000012C0B13081F0C3D0B1E00895C0C0672FE3
:10121000782F8827B85F39F0B93FCCF3869577955A
:101220006795B395D9F73EF4909580957095619543
:101230007F4F8F4F9F4F0895E89409C097FB3EF46E
:1012400090958095709561957F4F8F4F9F4F992313
:10125000A9F0F92F96E9BB279395F6958795779591
:101260006795B795F111F8CFFAF4BB0F11F460FF51
:101270001BC06F5F7F4F8F4F9F4F16C0882311F0A9
:1012800096E911C0772321F09EE8872F762F05C0BD
:10129000662371F096E8862F70E060E02AF09A9558
:1012A000660F771F881FDAF7880F9695879597F94D
:1012B0000895990F0008550FAA0BE0E8FEEF1616E7
:1012C0001706E807F907C0F012161306E407F5073A
:1012D00098F0621B730B840B950B39F40A2661F0AE
:1012E000232B242B252B21F408950A2609F4A14051
:1012F000A6958FEF811D811D089597F99F6780E85E
:1013000070E060E008959FEF80EC089500240A9457
:101310001616170618060906089500240A941216D0
:101320001306140605060895092E0394000C11F403
:10133000882352F0BB0F40F4BF2B11F460FF04C0B0
:101340006F5F7F4F8F4F9F4F089557FD9058440F09
:10135000551F59F05F3F71F04795880F97FB991F14
:1013600061F09F3F79F087950895121613061406D1
:10137000551FF2CF4695F1DF08C01616170618065E
:10138000991FF1CF86957105610508940895E89439
:10139000BB2766277727CB0197F908958ADF08F4E2
:1013A0008FEF08950BD0C0CFB1DF28F0B6DF18F073
:1013B000952309F0A2CFA7CF1124EACFC6DFA0F36F
:1013C000959FD1F3950F50E0551F629FF001729FDA
:1013D000BB27F00DB11D639FAA27F00DB11DAA1FF9
:1013E000649F6627B00DA11D661F829F2227B00D46
:1013F000A11D621F739FB00DA11D621F839FA00DD1
:10140000611D221F749F3327A00D611D231F849F20
:10141000600D211D822F762F6A2F11249F57504077
:101420008AF0E1F088234AF0EE0FFF1FBB1F661F12
:10143000771F881F91505040A9F79E3F510570F0CB
:101440005CCFA6CF5F3FECF3983EDCF386957795B3
:101450006795B795F795E7959F5FC1F7FE2B880FC6
:10146000911D9695879597F908952F923F924F92E7
:101470005F926F927F928F929F92AF92BF92CF9224
:10148000DF92EF92FF920F931F93CF93DF93CDB72D
:10149000DEB7CA1BDB0B0FB6F894DEBF0FBECDBFA5
:1014A00009942A88398848885F846E847D848C8476
:1014B0009B84AA84B984C884DF80EE80FD800C817F
:1014C0001B81AA81B981CE0FD11D0FB6F894DEBF62
:1014D0000FBECDBFED010895283008F027E0332777
:1014E000DA01990F311D87FD916000966105710544
:1014F00039F432602E5F3D9330E32A95E1F7089589
:101500009F3F30F080387105610509F03C5F3C5F1A
:101510003D93913008F08068911DDF93CF931F9326
:101520000F93FF92EF92192F987F9695E92F96953A
:101530009695E90FFF27E252FF4F99273327EE24B4
:10154000FF24A701E70105900894079428F4360FBB
:10155000E71EF81E491F511D660F771F881F991F30
:101560000694A1F70590079428F4E70EF81E491F8A
:10157000561FC11D770F881F991F661F0694A1F77C
:101580000590079428F4F80E491F561FC71FD11D58
:10159000880F991F661F771F0694A1F7059007947F
:1015A00020F4490F561FC71FD81F990F661F771FBA
:1015B000881F0694A9F784911095177041F0D6956D
:1015C000C79557954795F794E7941A95C1F7E4E8BE
:1015D000F0E068941590159135916591959105907D
:1015E0007FE27395E118F10A430B560BC90BD00942
:1015F000C0F7E10CF11E431F561FC91FD01D7EF41A
:10160000703311F48A95E6CFE894015030F0080F5A
:101610000AF40027021708F4202F2395022F7A33AB
:1016200028F079E37D932A95E9F710C07D932A95F8
:1016300089F6069497956795379517951794E1184D
:10164000F10A430B560BC90BD00998F023957E91F4
:1016500073957A3308F070E37C932013B8F77E918A
:1016600070617D9330F0839571E37D9370E32A95EB
:10167000E1F71124EF90FF900F911F91CF91DF912F
:10168000992787FD90950895FC0105906150704061
:101690000110D8F7809590958E0F9F1F0895FC013B
:1016A0006150704001900110D8F7809590958E0F91
:1016B0009F1F0895FA01CF93FF93EF93223044F1D7
:1016C000253234F5C22FE894CA3049F497FB3EF432
:1016D00090958095709561957F4F8F4F9F4F2C2FE0
:1016E000332744275527FF93EF930E94280CEF914F
:1016F000FF91605D6A330CF0695D6193B901CA01C5
:10170000605070408040904051F716F4CDE2C19394
:1017100010828F919F91CF910C94180C0F931F936F
:10172000CF93DF938C01EB018B8181FF1BC082FF84
:101730000DC02E813F818C819D812817390764F46B
:10174000E881F9810193F983E88306C0E885F9858A
:10175000802F0995009731F48E819F8101969F8398
:101760008E8302C00FEF1FEFC801DF91CF911F9151
:101770000F910895FA01AA27283051F1203181F103
:10178000E8946F936E7F6E5F7F4F8F4F9F4FAF4F89
:10179000B1E03ED0B4E03CD0670F781F891F9A1F9C
:1017A000A11D680F791F8A1F911DA11D6A0F711D50
:1017B000811D911DA11D20D009F468943F912AE05C
:1017C000269F11243019305D3193DEF6CF01089544
:1017D000462F4770405D4193B3E00FD0C9F7F6CF75
:1017E000462F4F70405D4A3318F0495D31FD40523D
:1017F000419302D0A9F7EACFB4E0A69597958795D3
:1018000077956795BA95C9F70097610571050895B1
:101810009B01AC010A2E069457954795379527955D
:10182000BA95C9F7620F731F841F951FA01D0895F5
:10183000DC01FC01672F71917723E1F7329704C037
:101840007C916D9370836291AE17BF07C8F30895C2
:10185000A1E21A2EAA1BBB1BFD010DC0AA1FBB1FB4
:10186000EE1FFF1FA217B307E407F50720F0A21B26
:10187000B30BE40BF50B661F771F881F991F1A9493
:1018800069F760957095809590959B01AC01BD01BD
:08189000CF010895F894FFCF89
:1018980050726F63657373696E67206D65737361EA
:1018A800676520686F6D650D0A00726563765F6213
:1018B80075666665723A20000D0A00486F6D696E9C
:1018C80067206C617365720D0A004C617365722044
:1018D800686F6D65640D0A004E6577206C617365ED
:1018E800722064657374696E6174696F6E207365C4
:1018F800740D0A0050726F63657373696E67206DAB
:101908006573736167650D0A0030313233343536DB
:1019180037383961626364650000803F0000204108
:101928000000C84200007A4400401C460050C347EB
:00000001FF
